{
  "contractName": "HashedTimelockERC20",
  "abi": [
    {
      "anonymous": false,
      "inputs": [
        {
          "indexed": true,
          "name": "contractId",
          "type": "bytes32"
        },
        {
          "indexed": true,
          "name": "sender",
          "type": "address"
        },
        {
          "indexed": true,
          "name": "receiver",
          "type": "address"
        },
        {
          "indexed": false,
          "name": "tokenContract",
          "type": "address"
        },
        {
          "indexed": false,
          "name": "amount",
          "type": "uint256"
        },
        {
          "indexed": false,
          "name": "hashlock",
          "type": "bytes32"
        },
        {
          "indexed": false,
          "name": "timelock",
          "type": "uint256"
        }
      ],
      "name": "LogHTLCERC20New",
      "type": "event"
    },
    {
      "anonymous": false,
      "inputs": [
        {
          "indexed": true,
          "name": "contractId",
          "type": "bytes32"
        }
      ],
      "name": "LogHTLCERC20Withdraw",
      "type": "event"
    },
    {
      "anonymous": false,
      "inputs": [
        {
          "indexed": true,
          "name": "contractId",
          "type": "bytes32"
        }
      ],
      "name": "LogHTLCERC20Refund",
      "type": "event"
    },
    {
      "constant": false,
      "inputs": [
        {
          "name": "_receiver",
          "type": "address"
        },
        {
          "name": "_hashlock",
          "type": "bytes32"
        },
        {
          "name": "_timelock",
          "type": "uint256"
        },
        {
          "name": "_tokenContract",
          "type": "address"
        },
        {
          "name": "_amount",
          "type": "uint256"
        }
      ],
      "name": "newContract",
      "outputs": [
        {
          "name": "contractId",
          "type": "bytes32"
        }
      ],
      "payable": false,
      "stateMutability": "nonpayable",
      "type": "function"
    },
    {
      "constant": false,
      "inputs": [
        {
          "name": "_contractId",
          "type": "bytes32"
        },
        {
          "name": "_preimage",
          "type": "bytes32"
        }
      ],
      "name": "withdraw",
      "outputs": [
        {
          "name": "",
          "type": "bool"
        }
      ],
      "payable": false,
      "stateMutability": "nonpayable",
      "type": "function"
    },
    {
      "constant": false,
      "inputs": [
        {
          "name": "_contractId",
          "type": "bytes32"
        }
      ],
      "name": "refund",
      "outputs": [
        {
          "name": "",
          "type": "bool"
        }
      ],
      "payable": false,
      "stateMutability": "nonpayable",
      "type": "function"
    },
    {
      "constant": true,
      "inputs": [
        {
          "name": "_contractId",
          "type": "bytes32"
        }
      ],
      "name": "getContract",
      "outputs": [
        {
          "name": "sender",
          "type": "address"
        },
        {
          "name": "receiver",
          "type": "address"
        },
        {
          "name": "tokenContract",
          "type": "address"
        },
        {
          "name": "amount",
          "type": "uint256"
        },
        {
          "name": "hashlock",
          "type": "bytes32"
        },
        {
          "name": "timelock",
          "type": "uint256"
        },
        {
          "name": "withdrawn",
          "type": "bool"
        },
        {
          "name": "refunded",
          "type": "bool"
        },
        {
          "name": "preimage",
          "type": "bytes32"
        }
      ],
      "payable": false,
      "stateMutability": "view",
      "type": "function"
    }
  ],
  "bytecode": "0x608060405234801561001057600080fd5b5061173f806100206000396000f3fe608060405260043610610062576000357c0100000000000000000000000000000000000000000000000000000000900463ffffffff168063398a7a9814610067578063636151491461010a5780637249fbb614610167578063e16c7d98146101ba575b600080fd5b34801561007357600080fd5b506100f4600480360360a081101561008a57600080fd5b81019080803573ffffffffffffffffffffffffffffffffffffffff1690602001909291908035906020019092919080359060200190929190803573ffffffffffffffffffffffffffffffffffffffff169060200190929190803590602001909291905050506102cd565b6040518082815260200191505060405180910390f35b34801561011657600080fd5b5061014d6004803603604081101561012d57600080fd5b810190808035906020019092919080359060200190929190505050610aee565b604051808215151515815260200191505060405180910390f35b34801561017357600080fd5b506101a06004803603602081101561018a57600080fd5b8101908080359060200190929190505050611086565b604051808215151515815260200191505060405180910390f35b3480156101c657600080fd5b506101f3600480360360208110156101dd57600080fd5b8101908080359060200190929190505050611565565b604051808a73ffffffffffffffffffffffffffffffffffffffff1673ffffffffffffffffffffffffffffffffffffffff1681526020018973ffffffffffffffffffffffffffffffffffffffff1673ffffffffffffffffffffffffffffffffffffffff1681526020018873ffffffffffffffffffffffffffffffffffffffff1673ffffffffffffffffffffffffffffffffffffffff1681526020018781526020018681526020018581526020018415151515815260200183151515158152602001828152602001995050505050505050505060405180910390f35b600082338360008111151561034a576040517f08c379a00000000000000000000000000000000000000000000000000000000081526004018080602001828103825260188152602001807f746f6b656e20616d6f756e74206d757374206265203e2030000000000000000081525060200191505060405180910390fd5b808373ffffffffffffffffffffffffffffffffffffffff1663dd62ed3e84306040518363ffffffff167c0100000000000000000000000000000000000000000000000000000000028152600401808373ffffffffffffffffffffffffffffffffffffffff1673ffffffffffffffffffffffffffffffffffffffff1681526020018273ffffffffffffffffffffffffffffffffffffffff1673ffffffffffffffffffffffffffffffffffffffff1681526020019250505060206040518083038186803b15801561041857600080fd5b505afa15801561042c573d6000803e3d6000fd5b505050506040513d602081101561044257600080fd5b8101908080519060200190929190505050101515156104ef576040517f08c379a00000000000000000000000000000000000000000000000000000000081526004018080602001828103825260218152602001807f746f6b656e20616c6c6f77616e6365206d757374206265203e3d20616d6f756e81526020017f740000000000000000000000000000000000000000000000000000000000000081525060400191505060405180910390fd5b86428111151561058d576040517f08c379a00000000000000000000000000000000000000000000000000000000081526004018080602001828103825260238152602001807f74696d656c6f636b2074696d65206d75737420626520696e207468652066757481526020017f757265000000000000000000000000000000000000000000000000000000000081525060400191505060405180910390fd5b6002338b89898d8d604051602001808773ffffffffffffffffffffffffffffffffffffffff1673ffffffffffffffffffffffffffffffffffffffff166c010000000000000000000000000281526014018673ffffffffffffffffffffffffffffffffffffffff1673ffffffffffffffffffffffffffffffffffffffff166c010000000000000000000000000281526014018573ffffffffffffffffffffffffffffffffffffffff1673ffffffffffffffffffffffffffffffffffffffff166c0100000000000000000000000002815260140184815260200183815260200182815260200196505050505050506040516020818303038152906040526040518082805190602001908083835b6020831015156106bd5780518252602082019150602081019050602083039250610698565b6001836020036101000a038019825116818451168082178552505050505050905001915050602060405180830381855afa1580156106ff573d6000803e3d6000fd5b5050506040513d602081101561071457600080fd5b81019080805190602001909291905050509450610730856116a5565b1561073a57600080fd5b8673ffffffffffffffffffffffffffffffffffffffff166323b872dd3330896040518463ffffffff167c0100000000000000000000000000000000000000000000000000000000028152600401808473ffffffffffffffffffffffffffffffffffffffff1673ffffffffffffffffffffffffffffffffffffffff1681526020018373ffffffffffffffffffffffffffffffffffffffff1673ffffffffffffffffffffffffffffffffffffffff1681526020018281526020019350505050602060405180830381600087803b15801561081157600080fd5b505af1158015610825573d6000803e3d6000fd5b505050506040513d602081101561083b57600080fd5b8101908080519060200190929190505050151561085757600080fd5b610120604051908101604052803373ffffffffffffffffffffffffffffffffffffffff1681526020018b73ffffffffffffffffffffffffffffffffffffffff1681526020018873ffffffffffffffffffffffffffffffffffffffff1681526020018781526020018a8152602001898152602001600015158152602001600015158152602001600060010281525060008087815260200190815260200160002060008201518160000160006101000a81548173ffffffffffffffffffffffffffffffffffffffff021916908373ffffffffffffffffffffffffffffffffffffffff16021790555060208201518160010160006101000a81548173ffffffffffffffffffffffffffffffffffffffff021916908373ffffffffffffffffffffffffffffffffffffffff16021790555060408201518160020160006101000a81548173ffffffffffffffffffffffffffffffffffffffff021916908373ffffffffffffffffffffffffffffffffffffffff160217905550606082015181600301556080820151816004015560a0820151816005015560c08201518160060160006101000a81548160ff02191690831515021790555060e08201518160060160016101000a81548160ff02191690831515021790555061010082015181600701559050508973ffffffffffffffffffffffffffffffffffffffff163373ffffffffffffffffffffffffffffffffffffffff16867f4ea4e99f860572a3879af5b9ed9265b3627da34e69374831e62cf9c1a037b5a38a8a8e8e604051808573ffffffffffffffffffffffffffffffffffffffff1673ffffffffffffffffffffffffffffffffffffffff16815260200184815260200183815260200182815260200194505050505060405180910390a45050505095945050505050565b600082610afa816116a5565b1515610b6e576040517f08c379a00000000000000000000000000000000000000000000000000000000081526004018080602001828103825260198152602001807f636f6e7472616374496420646f6573206e6f742065786973740000000000000081525060200191505060405180910390fd5b8383600281604051602001808281526020019150506040516020818303038152906040526040518082805190602001908083835b602083101515610bc75780518252602082019150602081019050602083039250610ba2565b6001836020036101000a038019825116818451168082178552505050505050905001915050602060405180830381855afa158015610c09573d6000803e3d6000fd5b5050506040513d6020811015610c1e57600080fd5b810190808051906020019092919050505060008084815260200190815260200160002060040154141515610cba576040517f08c379a000000000000000000000000000000000000000000000000000000000815260040180806020018281038252601c8152602001807f686173686c6f636b206861736820646f6573206e6f74206d617463680000000081525060200191505060405180910390fd5b853373ffffffffffffffffffffffffffffffffffffffff1660008083815260200190815260200160002060010160009054906101000a900473ffffffffffffffffffffffffffffffffffffffff1673ffffffffffffffffffffffffffffffffffffffff16141515610d93576040517f08c379a000000000000000000000000000000000000000000000000000000000815260040180806020018281038252601a8152602001807f776974686472617761626c653a206e6f7420726563656976657200000000000081525060200191505060405180910390fd5b6000151560008083815260200190815260200160002060060160009054906101000a900460ff161515141515610e31576040517f08c379a000000000000000000000000000000000000000000000000000000000815260040180806020018281038252601f8152602001807f776974686472617761626c653a20616c72656164792077697468647261776e0081525060200191505060405180910390fd5b4260008083815260200190815260200160002060050154111515610ee3576040517f08c379a00000000000000000000000000000000000000000000000000000000081526004018080602001828103825260318152602001807f776974686472617761626c653a2074696d656c6f636b2074696d65206d75737481526020017f20626520696e207468652066757475726500000000000000000000000000000081525060400191505060405180910390fd5b6000806000898152602001908152602001600020905086816007018190555060018160060160006101000a81548160ff0219169083151502179055508060020160009054906101000a900473ffffffffffffffffffffffffffffffffffffffff1673ffffffffffffffffffffffffffffffffffffffff1663a9059cbb8260010160009054906101000a900473ffffffffffffffffffffffffffffffffffffffff1683600301546040518363ffffffff167c0100000000000000000000000000000000000000000000000000000000028152600401808373ffffffffffffffffffffffffffffffffffffffff1673ffffffffffffffffffffffffffffffffffffffff16815260200182815260200192505050602060405180830381600087803b15801561100e57600080fd5b505af1158015611022573d6000803e3d6000fd5b505050506040513d602081101561103857600080fd5b810190808051906020019092919050505050877fb274ecbfbc0eda7b3618d62964d187a407e800a7cde2665de83e90b5acc1384160405160405180910390a260019550505050505092915050565b600081611092816116a5565b1515611106576040517f08c379a00000000000000000000000000000000000000000000000000000000081526004018080602001828103825260198152602001807f636f6e7472616374496420646f6573206e6f742065786973740000000000000081525060200191505060405180910390fd5b823373ffffffffffffffffffffffffffffffffffffffff1660008083815260200190815260200160002060000160009054906101000a900473ffffffffffffffffffffffffffffffffffffffff1673ffffffffffffffffffffffffffffffffffffffff161415156111df576040517f08c379a00000000000000000000000000000000000000000000000000000000081526004018080602001828103825260168152602001807f726566756e6461626c653a206e6f742073656e6465720000000000000000000081525060200191505060405180910390fd5b6000151560008083815260200190815260200160002060060160019054906101000a900460ff16151514151561127d576040517f08c379a000000000000000000000000000000000000000000000000000000000815260040180806020018281038252601c8152602001807f726566756e6461626c653a20616c726561647920726566756e6465640000000081525060200191505060405180910390fd5b6000151560008083815260200190815260200160002060060160009054906101000a900460ff16151514151561131b576040517f08c379a000000000000000000000000000000000000000000000000000000000815260040180806020018281038252601d8152602001807f726566756e6461626c653a20616c72656164792077697468647261776e00000081525060200191505060405180910390fd5b4260008083815260200190815260200160002060050154111515156113ce576040517f08c379a00000000000000000000000000000000000000000000000000000000081526004018080602001828103825260238152602001807f726566756e6461626c653a2074696d656c6f636b206e6f74207965742070617381526020017f736564000000000000000000000000000000000000000000000000000000000081525060400191505060405180910390fd5b6000806000868152602001908152602001600020905060018160060160016101000a81548160ff0219169083151502179055508060020160009054906101000a900473ffffffffffffffffffffffffffffffffffffffff1673ffffffffffffffffffffffffffffffffffffffff1663a9059cbb8260000160009054906101000a900473ffffffffffffffffffffffffffffffffffffffff1683600301546040518363ffffffff167c0100000000000000000000000000000000000000000000000000000000028152600401808373ffffffffffffffffffffffffffffffffffffffff1673ffffffffffffffffffffffffffffffffffffffff16815260200182815260200192505050602060405180830381600087803b1580156114f057600080fd5b505af1158015611504573d6000803e3d6000fd5b505050506040513d602081101561151a57600080fd5b810190808051906020019092919050505050847fd2e595f42ef29a918206aacb16643bc6b5217990d79865d467ab625e3174a55d60405160405180910390a260019350505050919050565b600080600080600080600080600080151561157f8b6116a5565b151514156115c7576000806000806000806000806000889850879750869650859550846001029450839350806001029050985098509850985098509850985098509850611698565b60008060008c815260200190815260200160002090508060000160009054906101000a900473ffffffffffffffffffffffffffffffffffffffff168160010160009054906101000a900473ffffffffffffffffffffffffffffffffffffffff168260020160009054906101000a900473ffffffffffffffffffffffffffffffffffffffff168360030154846004015485600501548660060160009054906101000a900460ff168760060160019054906101000a900460ff168860070154995099509950995099509950995099509950505b9193959799909294969850565b60008073ffffffffffffffffffffffffffffffffffffffff1660008084815260200190815260200160002060000160009054906101000a900473ffffffffffffffffffffffffffffffffffffffff1673ffffffffffffffffffffffffffffffffffffffff161415905091905056fea165627a7a72305820dbba754f6ed6bd433616da6dbab7d3bc3cbca2e60c4ca44fb651f3db618e95d70029",
  "source": "pragma solidity ^0.5.0;\n\nimport 'openzeppelin-solidity/contracts/token/ERC20/ERC20.sol';\n\n/**\n* @title Hashed Timelock Contracts (HTLCs) on Ethereum ERC20 tokens.\n*\n* This contract provides a way to create and keep HTLCs for ERC20 tokens.\n*\n* See HashedTimelock.sol for a contract that provides the same functions \n* for the native ETH token.\n*\n* Protocol:\n*\n*  1) newContract(receiver, hashlock, timelock, tokenContract, amount) - a \n*      sender calls this to create a new HTLC on a given token (tokenContract) \n*       for a given amount. A 32 byte contract id is returned\n*  2) withdraw(contractId, preimage) - once the receiver knows the preimage of\n*      the hashlock hash they can claim the tokens with this function\n*  3) refund() - after timelock has expired and if the receiver did not \n*      withdraw the tokens the sender / creater of the HTLC can get their tokens \n*      back with this function.\n */\ncontract HashedTimelockERC20 {\n\n    event LogHTLCERC20New(\n        bytes32 indexed contractId,\n        address indexed sender,\n        address indexed receiver,\n        address tokenContract,\n        uint amount,\n        bytes32 hashlock,\n        uint timelock\n    );\n    event LogHTLCERC20Withdraw(bytes32 indexed contractId);\n    event LogHTLCERC20Refund(bytes32 indexed contractId);\n\n    struct LockContract {\n        address sender;\n        address receiver;\n        address tokenContract;\n        uint amount;\n        bytes32 hashlock;\n        uint timelock; // UNIX timestamp seconds - locked UNTIL this time\n        bool withdrawn;\n        bool refunded;\n        bytes32 preimage;\n    }\n\n    modifier tokensTransferable(address _token, address _sender, uint _amount) {\n        require(_amount > 0, \"token amount must be > 0\");\n        require(\n            ERC20(_token).allowance(_sender, address(this)) >= _amount,\n            \"token allowance must be >= amount\"\n        );\n        _;\n    }\n    modifier futureTimelock(uint _time) {\n        // only requirement is the timelock time is after the last blocktime (now).\n        // probably want something a bit further in the future then this.\n        // but this is still a useful sanity check:\n        require(_time > now, \"timelock time must be in the future\");\n        _;\n    }\n    modifier contractExists(bytes32 _contractId) {\n        require(haveContract(_contractId), \"contractId does not exist\");\n        _;\n    }\n    modifier hashlockMatches(bytes32 _contractId, bytes32 _x) {\n        require(\n            contracts[_contractId].hashlock == sha256(abi.encodePacked(_x)),\n            \"hashlock hash does not match\"\n        );\n        _;\n    }\n    modifier withdrawable(bytes32 _contractId) {\n        require(contracts[_contractId].receiver == msg.sender, \"withdrawable: not receiver\");\n        require(contracts[_contractId].withdrawn == false, \"withdrawable: already withdrawn\");\n        require(contracts[_contractId].timelock > now, \"withdrawable: timelock time must be in the future\");\n        _;\n    }\n    modifier refundable(bytes32 _contractId) {\n        require(contracts[_contractId].sender == msg.sender, \"refundable: not sender\");\n        require(contracts[_contractId].refunded == false, \"refundable: already refunded\");\n        require(contracts[_contractId].withdrawn == false, \"refundable: already withdrawn\");\n        require(contracts[_contractId].timelock <= now, \"refundable: timelock not yet passed\");\n        _;\n    }\n\n    mapping (bytes32 => LockContract) contracts;\n\n    /**\n     * @dev Sender / Payer sets up a new hash time lock contract depositing the\n     * funds and providing the reciever and terms.\n     *\n     * NOTE: _receiver must first call approve() on the token contract. \n     *       See allowance check in tokensTransferable modifier.\n\n     * @param _receiver Receiver of the tokens.\n     * @param _hashlock A sha-2 sha256 hash hashlock.\n     * @param _timelock UNIX epoch seconds time that the lock expires at. \n     *                  Refunds can be made after this time.\n     * @param _tokenContract ERC20 Token contract address.\n     * @param _amount Amount of the token to lock up.\n     * @return contractId Id of the new HTLC. This is needed for subsequent \n     *                    calls.\n     */\n    function newContract(\n        address _receiver,\n        bytes32 _hashlock,\n        uint _timelock,\n        address _tokenContract,\n        uint _amount\n    )\n        external\n        tokensTransferable(_tokenContract, msg.sender, _amount)\n        futureTimelock(_timelock)\n        returns (bytes32 contractId)\n    {\n        contractId = sha256(\n            abi.encodePacked(\n                msg.sender,\n                _receiver,\n                _tokenContract,\n                _amount,\n                _hashlock,\n                _timelock\n            )\n        );\n\n        // Reject if a contract already exists with the same parameters. The\n        // sender must change one of these parameters (ideally providing a\n        // different _hashlock).\n        if (haveContract(contractId))\n            revert();\n\n        // This contract becomes the temporary owner of the tokens\n        if (!ERC20(_tokenContract).transferFrom(msg.sender, address(this), _amount))\n            revert();\n\n        contracts[contractId] = LockContract(\n            msg.sender,\n            _receiver,\n            _tokenContract,\n            _amount,\n            _hashlock,\n            _timelock,\n            false,\n            false,\n            0x0\n        );\n\n        emit LogHTLCERC20New(\n            contractId,\n            msg.sender,\n            _receiver,\n            _tokenContract,\n            _amount,\n            _hashlock,\n            _timelock\n        );\n    }\n\n    /**\n    * @dev Called by the receiver once they know the preimage of the hashlock.\n    * This will transfer ownership of the locked tokens to their address.\n    *\n    * @param _contractId Id of the HTLC.\n    * @param _preimage sha256(_preimage) should equal the contract hashlock.\n    * @return bool true on success\n     */\n    function withdraw(bytes32 _contractId, bytes32 _preimage)\n        external\n        contractExists(_contractId)\n        hashlockMatches(_contractId, _preimage)\n        withdrawable(_contractId)\n        returns (bool)\n    {\n        LockContract storage c = contracts[_contractId];\n        c.preimage = _preimage;\n        c.withdrawn = true;\n        ERC20(c.tokenContract).transfer(c.receiver, c.amount);\n        emit LogHTLCERC20Withdraw(_contractId);\n        return true;\n    }\n\n    /**\n     * @dev Called by the sender if there was no withdraw AND the time lock has\n     * expired. This will restore ownership of the tokens to the sender.\n     *\n     * @param _contractId Id of HTLC to refund from.\n     * @return bool true on success\n     */\n    function refund(bytes32 _contractId)\n        external\n        contractExists(_contractId)\n        refundable(_contractId)\n        returns (bool)\n    {\n        LockContract storage c = contracts[_contractId];\n        c.refunded = true;\n        ERC20(c.tokenContract).transfer(c.sender, c.amount);\n        emit LogHTLCERC20Refund(_contractId);\n        return true;\n    }\n\n    /**\n     * @dev Get contract details.\n     * @param _contractId HTLC contract id\n     * @return All parameters in struct LockContract for _contractId HTLC\n     */\n    function getContract(bytes32 _contractId)\n        public\n        view\n        returns (\n            address sender,\n            address receiver,\n            address tokenContract,\n            uint amount,\n            bytes32 hashlock,\n            uint timelock,\n            bool withdrawn,\n            bool refunded,\n            bytes32 preimage\n        )\n    {\n        if (haveContract(_contractId) == false)\n            return (address(0), address(0), address(0), 0, 0, 0, false, false, 0);\n        LockContract storage c = contracts[_contractId];\n        return (\n            c.sender,\n            c.receiver,\n            c.tokenContract,\n            c.amount,\n            c.hashlock,\n            c.timelock,\n            c.withdrawn,\n            c.refunded,\n            c.preimage\n        );\n    }\n\n    /**\n     * @dev Is there a contract with id _contractId.\n     * @param _contractId Id into contracts mapping.\n     */\n    function haveContract(bytes32 _contractId)\n        internal\n        view\n        returns (bool exists)\n    {\n        exists = (contracts[_contractId].sender != address(0));\n    }\n\n}",
  "sourcePath": "/Users/soyoung/Desktop/ethereum/my-first-dapp/contracts/HashedTImelockERC20.sol",
  "compiler": {
    "name": "solc",
    "version": "0.5.0+commit.1d4f565a.Emscripten.clang"
  },
  "schemaVersion": "3.0.3",
  "updatedAt": "2019-04-01T09:35:24.047Z",
  "devdoc": {
    "methods": {
      "getContract(bytes32)": {
        "details": "Get contract details.",
        "params": {
          "_contractId": "HTLC contract id"
        },
        "return": "All parameters in struct LockContract for _contractId HTLC"
      },
      "newContract(address,bytes32,uint256,address,uint256)": {
        "details": "Sender / Payer sets up a new hash time lock contract depositing the funds and providing the reciever and terms.     * NOTE: _receiver must first call approve() on the token contract.       See allowance check in tokensTransferable modifier.",
        "params": {
          "_amount": "Amount of the token to lock up.",
          "_hashlock": "A sha-2 sha256 hash hashlock.",
          "_receiver": "Receiver of the tokens.",
          "_timelock": "UNIX epoch seconds time that the lock expires at.                  Refunds can be made after this time.",
          "_tokenContract": "ERC20 Token contract address."
        },
        "return": "contractId Id of the new HTLC. This is needed for subsequent                    calls."
      },
      "refund(bytes32)": {
        "details": "Called by the sender if there was no withdraw AND the time lock has expired. This will restore ownership of the tokens to the sender.",
        "params": {
          "_contractId": "Id of HTLC to refund from."
        },
        "return": "bool true on success"
      },
      "withdraw(bytes32,bytes32)": {
        "details": "Called by the receiver once they know the preimage of the hashlock. This will transfer ownership of the locked tokens to their address.",
        "params": {
          "_contractId": "Id of the HTLC.",
          "_preimage": "sha256(_preimage) should equal the contract hashlock."
        },
        "return": "bool true on success"
      }
    },
    "title": "Hashed Timelock Contracts (HTLCs) on Ethereum ERC20 tokens. * This contract provides a way to create and keep HTLCs for ERC20 tokens. * See HashedTimelock.sol for a contract that provides the same functions  for the native ETH token. * Protocol: *  1) newContract(receiver, hashlock, timelock, tokenContract, amount) - a      sender calls this to create a new HTLC on a given token (tokenContract)       for a given amount. A 32 byte contract id is returned 2) withdraw(contractId, preimage) - once the receiver knows the preimage of     the hashlock hash they can claim the tokens with this function 3) refund() - after timelock has expired and if the receiver did not      withdraw the tokens the sender / creater of the HTLC can get their tokens      back with this function."
  },
  "userdoc": {
    "methods": {}
  }
}