{
  "contractName": "Reference",
  "abi": [
    {
      "constant": true,
      "inputs": [],
      "name": "creationTime",
      "outputs": [
        {
          "name": "",
          "type": "uint256"
        }
      ],
      "payable": false,
      "stateMutability": "view",
      "type": "function"
    },
    {
      "inputs": [
        {
          "name": "_respondentAddress",
          "type": "address[]"
        },
        {
          "name": "_minReward",
          "type": "uint256"
        },
        {
          "name": "_maxReward",
          "type": "uint256"
        },
        {
          "name": "_deadline",
          "type": "uint256"
        }
      ],
      "payable": true,
      "stateMutability": "payable",
      "type": "constructor"
    },
    {
      "constant": true,
      "inputs": [],
      "name": "getRequestState",
      "outputs": [
        {
          "name": "_status",
          "type": "uint8"
        }
      ],
      "payable": false,
      "stateMutability": "view",
      "type": "function"
    },
    {
      "constant": false,
      "inputs": [
        {
          "name": "_respondent",
          "type": "address"
        }
      ],
      "name": "sendReward",
      "outputs": [],
      "payable": false,
      "stateMutability": "nonpayable",
      "type": "function"
    },
    {
      "constant": false,
      "inputs": [],
      "name": "expire",
      "outputs": [],
      "payable": false,
      "stateMutability": "nonpayable",
      "type": "function"
    },
    {
      "constant": false,
      "inputs": [],
      "name": "answer",
      "outputs": [],
      "payable": false,
      "stateMutability": "nonpayable",
      "type": "function"
    }
  ],
  "bytecode": "0x6080604052600180556064600255426005556000600860006101000a81548160ff0219169083600481111561003057fe5b0217905550604051610c93380380610c938339810180604052608081101561005757600080fd5b81019080805164010000000081111561006f57600080fd5b8281019050602081018481111561008557600080fd5b81518560208202830111640100000000821117156100a257600080fd5b50509291906020018051906020019092919080519060200190929190805190602001909291905050506001548310151515610145576040517f08c379a00000000000000000000000000000000000000000000000000000000081526004018080602001828103825260098152602001807f6d696e726577617264000000000000000000000000000000000000000000000081525060200191505060405180910390fd5b60025482111515156101bf576040517f08c379a00000000000000000000000000000000000000000000000000000000081526004018080602001828103825260098152602001807f6d6178726577617264000000000000000000000000000000000000000000000081525060200191505060405180910390fd5b348385510211151515610260576040517f08c379a000000000000000000000000000000000000000000000000000000000815260040180806020018281038252602d8152602001807f796f752073686f756c6420706179207b31202a204e756d206f6620526573706f81526020017f6e64656e74737d2065746865720000000000000000000000000000000000000081525060400191505060405180910390fd5b336000806101000a81548173ffffffffffffffffffffffffffffffffffffffff021916908373ffffffffffffffffffffffffffffffffffffffff16021790555082600381905550816004819055503460078190555060008090505b8451811015610485576009600086838151811015156102d657fe5b9060200190602002015173ffffffffffffffffffffffffffffffffffffffff1673ffffffffffffffffffffffffffffffffffffffff16815260200190815260200160002060020160009054906101000a900460ff161515156103a0576040517f08c379a00000000000000000000000000000000000000000000000000000000081526004018080602001828103825260138152602001807f416c726561647920526567697374657265642e0000000000000000000000000081525060200191505060405180910390fd5b606060405190810160405280600060028111156103b957fe5b815260200160008152602001600115158152506009600087848151811015156103de57fe5b9060200190602002015173ffffffffffffffffffffffffffffffffffffffff1673ffffffffffffffffffffffffffffffffffffffff16815260200190815260200160002060008201518160000160006101000a81548160ff0219169083600281111561044657fe5b02179055506020820151816001015560408201518160020160006101000a81548160ff02191690831515021790555090505080806001019150506102bb565b50806006819055506001600860006101000a81548160ff021916908360048111156104ac57fe5b0217905550505050506107cf806104c46000396000f3fe60806040526004361061006d576000357c0100000000000000000000000000000000000000000000000000000000900463ffffffff16806379599f961461007257806385bb7d69146100895780639dabff25146100a0578063a39152f2146100f1578063d8270dce1461012a575b600080fd5b34801561007e57600080fd5b50610087610155565b005b34801561009557600080fd5b5061009e6101c9565b005b3480156100ac57600080fd5b506100ef600480360360208110156100c357600080fd5b81019080803573ffffffffffffffffffffffffffffffffffffffff1690602001909291905050506104c6565b005b3480156100fd57600080fd5b50610106610786565b6040518082600481111561011657fe5b60ff16815260200191505060405180910390f35b34801561013657600080fd5b5061013f61079d565b6040518082815260200191505060405180910390f35b6000809054906101000a900473ffffffffffffffffffffffffffffffffffffffff1673ffffffffffffffffffffffffffffffffffffffff163373ffffffffffffffffffffffffffffffffffffffff161415156101b057600080fd5b3373ffffffffffffffffffffffffffffffffffffffff16ff5b6000600960003373ffffffffffffffffffffffffffffffffffffffff1673ffffffffffffffffffffffffffffffffffffffff16815260200190815260200160002090508060020160009054906101000a900460ff161515610292576040517f08c379a000000000000000000000000000000000000000000000000000000000815260040180806020018281038252600e8152602001807f556e76616c69642041636365737300000000000000000000000000000000000081525060200191505060405180910390fd5b6001600481111561029f57fe5b600860009054906101000a900460ff1660048111156102ba57fe5b14151561032f576040517f08c379a00000000000000000000000000000000000000000000000000000000081526004018080602001828103825260148152602001807f52657175657374206973206e6f742076616c696400000000000000000000000081525060200191505060405180910390fd5b6000600281111561033c57fe5b600960003373ffffffffffffffffffffffffffffffffffffffff1673ffffffffffffffffffffffffffffffffffffffff16815260200190815260200160002060000160009054906101000a900460ff16600281111561039757fe5b14151561040c576040517f08c379a00000000000000000000000000000000000000000000000000000000081526004018080602001828103825260168152602001807f596f7520616c726561647920676f74207265776172640000000000000000000081525060200191505060405180910390fd5b6001600960003373ffffffffffffffffffffffffffffffffffffffff1673ffffffffffffffffffffffffffffffffffffffff16815260200190815260200160002060000160006101000a81548160ff0219169083600281111561046b57fe5b02179055503373ffffffffffffffffffffffffffffffffffffffff166108fc670de0b6b3a7640000600154029081150290604051600060405180830381858888f193505050501580156104c2573d6000803e3d6000fd5b5050565b6000809054906101000a900473ffffffffffffffffffffffffffffffffffffffff1673ffffffffffffffffffffffffffffffffffffffff163373ffffffffffffffffffffffffffffffffffffffff1614151561052157600080fd5b600960008273ffffffffffffffffffffffffffffffffffffffff1673ffffffffffffffffffffffffffffffffffffffff16815260200190815260200160002060020160009054906101000a900460ff1615156105e5576040517f08c379a000000000000000000000000000000000000000000000000000000000815260040180806020018281038252600f8152602001807f556e76616c69642041646472657373000000000000000000000000000000000081525060200191505060405180910390fd5b600160028111156105f257fe5b600960008373ffffffffffffffffffffffffffffffffffffffff1673ffffffffffffffffffffffffffffffffffffffff16815260200190815260200160002060000160009054906101000a900460ff16600281111561064d57fe5b1415156106c2576040517f08c379a00000000000000000000000000000000000000000000000000000000081526004018080602001828103825260148152602001807f4e6f7420416e737765726564204164647265737300000000000000000000000081525060200191505060405180910390fd5b60006003546004540390506002600960008473ffffffffffffffffffffffffffffffffffffffff1673ffffffffffffffffffffffffffffffffffffffff16815260200190815260200160002060000160006101000a81548160ff0219169083600281111561072c57fe5b02179055508173ffffffffffffffffffffffffffffffffffffffff166108fc670de0b6b3a764000083029081150290604051600060405180830381858888f19350505050158015610781573d6000803e3d6000fd5b505050565b6000600860009054906101000a900460ff16905090565b6005548156fea165627a7a723058209af16eb61a68b8b9f498b1a3d7ba78176a9707dd51b0659884b2fbfc7658e7a60029",
  "source": "pragma solidity >=0.4.21 <0.6.0;\n\ncontract Reference {\n    \n    // Reference Request Info \n    address recruiter;              // Recruiter Address \n    uint MIN_REWARD = 1;            // Minimum Price Of Reward(per Person)\n    uint MAX_REWARD = 100;          // Maximum Price OF Reward(per Person)\n    uint minReward;                 // Recruiter can choose amount of reward\n    uint maxReward;\n    uint public creationTime = now; // Created Time\n    uint deadline;                  // Response Deadline \n    uint reward; \n    enum RequestStatus { \n        Created,                    // 요청 생성\n        Reseaching,                 // 응답 진행중\n        Done,                       // 응답 완료\n        Rewarding,                  // 추가 보상 완료\n        Completed                   // \n    }\n    RequestStatus status = RequestStatus.Created;\n    \n    // Respondents Info \n    enum RespondentStatus{\n        Wait,\n        Answered,\n        Rewarded\n    }\n    struct Respondent {\n        RespondentStatus status;\n        uint reward; \n        bool exists; // set to true \n    }\n    \n    mapping (address => Respondent) respondents;\n\n    constructor(\n        address[] memory _respondentAddress, \n        uint _minReward, \n        uint _maxReward, \n        uint _deadline\n    ) payable public {\n        require(_minReward >= MIN_REWARD, \"minreward\");\n        require(_maxReward <= MAX_REWARD, \"maxreward\");\n        require(_respondentAddress.length * _minReward <= msg.value, \"you should pay {1 * Num of Respondents} ether\");\n        \n        recruiter = msg.sender;\n        minReward = _minReward;\n        maxReward = _maxReward;\n        reward = msg.value;\n        for(uint i=0; i<_respondentAddress.length;i++){\n            require(!respondents[_respondentAddress[i]].exists, \"Already Registered.\");\n            respondents[_respondentAddress[i]] = Respondent(RespondentStatus.Wait, 0, true);\n        }\n        deadline = _deadline;\n        status = RequestStatus.Reseaching;\n    }\n\n    //  function getStatus() external view returns(uint _status, uint _deadline){\n    //     _status = uint(status);\n    //     _deadline = deadline;\n    //     // return(_status, deadline);\n    // }\n    \n    /**\n     * 진행 상태\n     */\n    function getRequestState() external view returns(RequestStatus _status){\n        _status = status;\n    }\n    \n    // function getResponseStatus(address _respondent) external view returns(RespondentStatus _status){\n    //     // require(respondents[_respondent], \"unknown respondent.\");\n    //     _status = respondents[_respondent].status;\n    // }\n    \n    modifier onlyRecruiter(){\n        require(msg.sender == recruiter);\n        _;\n    }\n    \n    function sendReward(address payable _respondent) onlyRecruiter external {\n        require(respondents[_respondent].exists, \"Unvalid Address\");\n        require(respondents[_respondent].status == RespondentStatus.Answered, \"Not Answered Address\");\n\n        uint cost = maxReward - minReward;\n        respondents[_respondent].status = RespondentStatus.Rewarded;\n        _respondent.transfer(cost * 1 ether);\n    }\n    \n    function expire() onlyRecruiter external{\n        // require(status==RequestStatus.Created);\n        selfdestruct(msg.sender);\n    }\n    \n        \n    modifier onlyRespondents(){\n        Respondent storage _respondent = respondents[msg.sender];\n        require(_respondent.exists, \"Unvalid Access\");\n        _; \n    }\n    \n    function answer() onlyRespondents external{\n        require(status == RequestStatus.Reseaching, \"Request is not valid\"); \n        require(respondents[msg.sender].status == RespondentStatus.Wait, \"You already got reward\");\n        \n        respondents[msg.sender].status = RespondentStatus.Answered;\n        msg.sender.transfer(MIN_REWARD * 1 ether);\n    }\n    \n    // function getReward() onlyRespondents external{\n    //     require(status == RequestStatus.Rewarding, \"Unvalid Request\");\n    //     require(respondents[msg.sender].reward > 0, \"There is no reward\");\n        \n    //     msg.sender.transfer(reward * 1 ether);\n    // }\n    \n}\n",
  "sourcePath": "/Users/soyoung/Desktop/alopex/my-first-dapp/contracts/Reference.sol",
  "compiler": {
    "name": "solc",
    "version": "0.5.0+commit.1d4f565a.Emscripten.clang"
  },
  "schemaVersion": "3.0.2",
  "updatedAt": "2019-03-06T09:10:33.173Z",
  "devdoc": {
    "methods": {}
  },
  "userdoc": {
    "methods": {
      "getRequestState()": {
        "notice": "진행 상태"
      }
    }
  }
}