{
  "contractName": "Reference",
  "abi": [
    {
      "constant": true,
      "inputs": [],
      "name": "creationTime",
      "outputs": [
        {
          "name": "",
          "type": "uint256"
        }
      ],
      "payable": false,
      "stateMutability": "view",
      "type": "function"
    },
    {
      "inputs": [
        {
          "name": "_respondentAddress",
          "type": "address[]"
        },
        {
          "name": "_minReward",
          "type": "uint256"
        },
        {
          "name": "_maxReward",
          "type": "uint256"
        },
        {
          "name": "_deadline",
          "type": "uint256"
        }
      ],
      "payable": true,
      "stateMutability": "payable",
      "type": "constructor"
    },
    {
      "constant": true,
      "inputs": [],
      "name": "getStatus",
      "outputs": [
        {
          "name": "_status",
          "type": "uint256"
        },
        {
          "name": "_deadline",
          "type": "uint256"
        }
      ],
      "payable": false,
      "stateMutability": "view",
      "type": "function"
    },
    {
      "constant": true,
      "inputs": [],
      "name": "getRequestState",
      "outputs": [
        {
          "name": "_status",
          "type": "uint8"
        }
      ],
      "payable": false,
      "stateMutability": "view",
      "type": "function"
    },
    {
      "constant": true,
      "inputs": [
        {
          "name": "_respondent",
          "type": "address"
        }
      ],
      "name": "getResponseStatus",
      "outputs": [
        {
          "name": "_status",
          "type": "uint8"
        }
      ],
      "payable": false,
      "stateMutability": "view",
      "type": "function"
    },
    {
      "constant": true,
      "inputs": [
        {
          "name": "_rewards",
          "type": "uint256[]"
        }
      ],
      "name": "setReward",
      "outputs": [],
      "payable": false,
      "stateMutability": "view",
      "type": "function"
    },
    {
      "constant": false,
      "inputs": [],
      "name": "expire",
      "outputs": [],
      "payable": true,
      "stateMutability": "payable",
      "type": "function"
    },
    {
      "constant": false,
      "inputs": [],
      "name": "answer",
      "outputs": [],
      "payable": false,
      "stateMutability": "nonpayable",
      "type": "function"
    },
    {
      "constant": false,
      "inputs": [],
      "name": "getReward",
      "outputs": [],
      "payable": false,
      "stateMutability": "nonpayable",
      "type": "function"
    }
  ],
  "bytecode": "0x6080604052600a6001556064600255426005556000600860006101000a81548160ff0219169083600481111561003157fe5b0217905550604051610f32380380610f328339810180604052608081101561005857600080fd5b81019080805164010000000081111561007057600080fd5b8281019050602081018481111561008657600080fd5b81518560208202830111640100000000821117156100a357600080fd5b50509291906020018051906020019092919080519060200190929190805190602001909291905050506001548310151515610146576040517f08c379a00000000000000000000000000000000000000000000000000000000081526004018080602001828103825260098152602001807f6d696e726577617264000000000000000000000000000000000000000000000081525060200191505060405180910390fd5b60025482111515156101c0576040517f08c379a00000000000000000000000000000000000000000000000000000000081526004018080602001828103825260098152602001807f6d6178726577617264000000000000000000000000000000000000000000000081525060200191505060405180910390fd5b348385510211151515610261576040517f08c379a000000000000000000000000000000000000000000000000000000000815260040180806020018281038252602d8152602001807f796f752073686f756c6420706179207b31202a204e756d206f6620526573706f81526020017f6e64656e74737d2065746865720000000000000000000000000000000000000081525060400191505060405180910390fd5b336000806101000a81548173ffffffffffffffffffffffffffffffffffffffff021916908373ffffffffffffffffffffffffffffffffffffffff16021790555082600381905550816004819055503460078190555060008090505b8451811015610486576009600086838151811015156102d757fe5b9060200190602002015173ffffffffffffffffffffffffffffffffffffffff1673ffffffffffffffffffffffffffffffffffffffff16815260200190815260200160002060020160009054906101000a900460ff161515156103a1576040517f08c379a00000000000000000000000000000000000000000000000000000000081526004018080602001828103825260138152602001807f416c726561647920526567697374657265642e0000000000000000000000000081525060200191505060405180910390fd5b606060405190810160405280600060028111156103ba57fe5b815260200160008152602001600115158152506009600087848151811015156103df57fe5b9060200190602002015173ffffffffffffffffffffffffffffffffffffffff1673ffffffffffffffffffffffffffffffffffffffff16815260200190815260200160002060008201518160000160006101000a81548160ff0219169083600281111561044757fe5b02179055506020820151816001015560408201518160020160006101000a81548160ff02191690831515021790555090505080806001019150506102bc565b50806006819055506001600860006101000a81548160ff021916908360048111156104ad57fe5b021790555050505050610a6d806104c56000396000f3fe60806040526004361061008e576000357c0100000000000000000000000000000000000000000000000000000000900463ffffffff16806338cfe0d2146100935780633d18b912146101195780634e69d5601461013057806379599f961461016257806385bb7d691461016c578063a39152f214610183578063b6ab8c0e146101bc578063d8270dce1461022f575b600080fd5b34801561009f57600080fd5b50610117600480360360208110156100b657600080fd5b81019080803590602001906401000000008111156100d357600080fd5b8201836020820111156100e557600080fd5b8035906020019184602083028401116401000000008311171561010757600080fd5b909192939192939050505061025a565b005b34801561012557600080fd5b5061012e61037f565b005b34801561013c57600080fd5b506101456105f5565b604051808381526020018281526020019250505060405180910390f35b61016a610626565b005b34801561017857600080fd5b506101816106ce565b005b34801561018f57600080fd5b506101986109cb565b604051808260048111156101a857fe5b60ff16815260200191505060405180910390f35b3480156101c857600080fd5b5061020b600480360360208110156101df57600080fd5b81019080803573ffffffffffffffffffffffffffffffffffffffff1690602001909291905050506109e2565b6040518082600281111561021b57fe5b60ff16815260200191505060405180910390f35b34801561023b57600080fd5b50610244610a3b565b6040518082815260200191505060405180910390f35b6000809054906101000a900473ffffffffffffffffffffffffffffffffffffffff1673ffffffffffffffffffffffffffffffffffffffff163373ffffffffffffffffffffffffffffffffffffffff161415156102b557600080fd5b6000805b838390508110156102ea5783838281811015156102d257fe5b905060200201358201915080806001019150506102b9565b503073ffffffffffffffffffffffffffffffffffffffff1631811115151561037a576040517f08c379a00000000000000000000000000000000000000000000000000000000081526004018080602001828103825260178152602001807f42616c616e636520697320696e73756666696369656e7400000000000000000081525060200191505060405180910390fd5b505050565b6000600960003373ffffffffffffffffffffffffffffffffffffffff1673ffffffffffffffffffffffffffffffffffffffff16815260200190815260200160002090508060020160009054906101000a900460ff161515610448576040517f08c379a000000000000000000000000000000000000000000000000000000000815260040180806020018281038252600e8152602001807f556e76616c69642041636365737300000000000000000000000000000000000081525060200191505060405180910390fd5b6003600481111561045557fe5b600860009054906101000a900460ff16600481111561047057fe5b1415156104e5576040517f08c379a000000000000000000000000000000000000000000000000000000000815260040180806020018281038252600f8152602001807f556e76616c69642052657175657374000000000000000000000000000000000081525060200191505060405180910390fd5b6000600960003373ffffffffffffffffffffffffffffffffffffffff1673ffffffffffffffffffffffffffffffffffffffff1681526020019081526020016000206001015411151561059f576040517f08c379a00000000000000000000000000000000000000000000000000000000081526004018080602001828103825260128152602001807f5468657265206973206e6f20726577617264000000000000000000000000000081525060200191505060405180910390fd5b3373ffffffffffffffffffffffffffffffffffffffff166108fc670de0b6b3a7640000600754029081150290604051600060405180830381858888f193505050501580156105f1573d6000803e3d6000fd5b5050565b600080600860009054906101000a900460ff16600481111561061357fe5b9150600654905081600654915091509091565b6000809054906101000a900473ffffffffffffffffffffffffffffffffffffffff1673ffffffffffffffffffffffffffffffffffffffff163373ffffffffffffffffffffffffffffffffffffffff1614151561068157600080fd5b6000600481111561068e57fe5b600860009054906101000a900460ff1660048111156106a957fe5b1415156106b557600080fd5b3373ffffffffffffffffffffffffffffffffffffffff16ff5b6000600960003373ffffffffffffffffffffffffffffffffffffffff1673ffffffffffffffffffffffffffffffffffffffff16815260200190815260200160002090508060020160009054906101000a900460ff161515610797576040517f08c379a000000000000000000000000000000000000000000000000000000000815260040180806020018281038252600e8152602001807f556e76616c69642041636365737300000000000000000000000000000000000081525060200191505060405180910390fd5b600160048111156107a457fe5b600860009054906101000a900460ff1660048111156107bf57fe5b141515610834576040517f08c379a00000000000000000000000000000000000000000000000000000000081526004018080602001828103825260148152602001807f52657175657374206973206e6f742076616c696400000000000000000000000081525060200191505060405180910390fd5b6000600281111561084157fe5b600960003373ffffffffffffffffffffffffffffffffffffffff1673ffffffffffffffffffffffffffffffffffffffff16815260200190815260200160002060000160009054906101000a900460ff16600281111561089c57fe5b141515610911576040517f08c379a00000000000000000000000000000000000000000000000000000000081526004018080602001828103825260168152602001807f596f7520616c726561647920676f74207265776172640000000000000000000081525060200191505060405180910390fd5b6001600960003373ffffffffffffffffffffffffffffffffffffffff1673ffffffffffffffffffffffffffffffffffffffff16815260200190815260200160002060000160006101000a81548160ff0219169083600281111561097057fe5b02179055503373ffffffffffffffffffffffffffffffffffffffff166108fc670de0b6b3a7640000600154029081150290604051600060405180830381858888f193505050501580156109c7573d6000803e3d6000fd5b5050565b6000600860009054906101000a900460ff16905090565b6000600960008373ffffffffffffffffffffffffffffffffffffffff1673ffffffffffffffffffffffffffffffffffffffff16815260200190815260200160002060000160009054906101000a900460ff169050919050565b6005548156fea165627a7a72305820146f7d75998a3e173bfdf133ba0c4a1f382ffc64ee23fa47ceb5841c5ee1f2530029",
  "source": "pragma solidity >=0.4.21 <0.6.0;\n\ncontract Reference {\n    \n    // Reference Request Info \n    address recruiter;              // Recruiter Address \n    uint MIN_REWARD = 10;      // Minimum Price Of Reward(per Person)\n    uint MAX_REWARD = 100;      // Maximum Price OF Reward(per Person)\n    uint minReward;                 // Recruiter can choose amount of reward\n    uint maxReward;\n    uint public creationTime = now; // Created Time\n    uint deadline;                  // Response Deadline \n    uint reward; \n    enum RequestStatus { \n        Created,                    // 요청 생성\n        Reseaching,                 // 응답 진행중\n        Done,                       // 응답 완료\n        Rewarding,                  // 추가 보상 완료\n        Completed                   // \n    }\n    RequestStatus status = RequestStatus.Created;\n    \n    // Respondents Info \n    enum RespondentStatus{\n        Wait,\n        Answered,\n        Rewarded\n    }\n    struct Respondent {\n        RespondentStatus status;\n        uint reward; \n        bool exists; // set to true \n    }\n    \n    \n    mapping (address => Respondent) respondents;\n\n    constructor(\n        address[] memory _respondentAddress, \n        uint _minReward, \n        uint _maxReward, \n        uint _deadline\n    ) payable public {\n        require(_minReward >= MIN_REWARD, \"minreward\");\n        require(_maxReward <= MAX_REWARD, \"maxreward\");\n        require(_respondentAddress.length * _minReward <= msg.value, \"you should pay {1 * Num of Respondents} ether\");\n        \n        recruiter = msg.sender;\n        minReward = _minReward;\n        maxReward = _maxReward;\n        reward = msg.value;\n        for(uint i=0; i<_respondentAddress.length;i++){\n            require(!respondents[_respondentAddress[i]].exists, \"Already Registered.\");\n            respondents[_respondentAddress[i]] = Respondent(RespondentStatus.Wait, 0, true);\n        }\n        deadline = _deadline;\n        status = RequestStatus.Reseaching;\n    }\n\n     function getStatus() external view returns(uint _status, uint _deadline){\n        _status = uint(status);\n        _deadline = deadline;\n        return(_status, deadline);\n    }\n    \n    function getRequestState() external view returns(RequestStatus _status){\n        _status = status;\n    }\n    \n    function getResponseStatus(address _respondent) external view returns(RespondentStatus _status){\n        // require(respondents[_respondent], \"unknown respondent.\");\n        _status = respondents[_respondent].status;\n    }\n    \n    modifier onlyRecruiter(){\n        require(msg.sender == recruiter);\n        _;\n    }\n    \n    function setReward(uint[] calldata _rewards) onlyRecruiter external view {\n        uint totalReward;\n        for(uint i;i < _rewards.length;i++){\n            totalReward += _rewards[i];\n        }\n        require(totalReward <= address(this).balance, \"Balance is insufficient\");\n    }\n    \n    function expire() onlyRecruiter external payable{\n        require(status==RequestStatus.Created);\n        selfdestruct(msg.sender);\n    }\n    \n        \n    modifier onlyRespondents(){\n        Respondent storage _respondent = respondents[msg.sender];\n        require(_respondent.exists, \"Unvalid Access\");\n        _; \n    }\n    \n    function answer() onlyRespondents external{\n        require(status == RequestStatus.Reseaching, \"Request is not valid\"); \n        require(respondents[msg.sender].status == RespondentStatus.Wait, \"You already got reward\");\n        \n        respondents[msg.sender].status = RespondentStatus.Answered;\n        msg.sender.transfer(MIN_REWARD * 1 ether);\n    }\n    \n    function getReward() onlyRespondents external{\n        require(status == RequestStatus.Rewarding, \"Unvalid Request\");\n        require(respondents[msg.sender].reward > 0, \"There is no reward\");\n        \n        msg.sender.transfer(reward * 1 ether);\n    }\n    \n}\n",
  "sourcePath": "/Users/soyoung/Desktop/alopex/drizzle/contracts/Reference.sol",
  "compiler": {
    "name": "solc",
    "version": "0.5.0+commit.1d4f565a.Emscripten.clang"
  },
  "schemaVersion": "3.0.2",
  "updatedAt": "2019-03-05T01:05:22.363Z",
  "devdoc": {
    "methods": {}
  },
  "userdoc": {
    "methods": {}
  }
}